:100000000C9434000C9449000C9449000C94490061
:100010000C9449000C9449000C9449000C9449003C
:100020000C9449000C9449000C9449000C9449002C
:100030000C9449000C9449000C9449000C9449001C
:100040000C9449000C9449000C9449000C9449000C
:100050000C9449000C9449000C9449000C944900FC
:100060000C9449000C94490011241FBECFEFD8E036
:10007000DEBFCDBF11E0A0E0B1E0E0E9F1E002C0F9
:1000800005900D92A03DB107D9F70E944B000C944A
:10009000C6000C940000CF92DF92EF92FF920F9374
:1000A0001F93CF93DF938FEF87B984B98AB940E06C
:1000B00050E031E0C32ED12C20EDE22E27E0F22ECD
:1000C00000E911E035C0C601022E02C0880F991F59
:1000D0000A94E2F785B9819180958BB9C7010197A0
:1000E000F1F72F5F3F4F2430310569F715B8FB0159
:1000F00020E030E0C601022E02C0880F991F0A944A
:10010000E2F788B9819180958BB9C7010197F1F722
:100110002F5F3F4F2430310569F718B82196C83C4E
:10012000D10521F0FD0120E030E0CDCF4F5F5F4FE2
:100130004A3151059CF4C0E0D0E0DA0193E0AA0F07
:10014000BB1F9A95E1F7A050BF4FBA0183E0660F3D
:10015000771F8A95E1F76C5F7E4FE4CF80EB94E0E8
:10016000F8013197F1F70197D9F780EB94E0F801A6
:100170003197F1F70197D9F780EB94E0F8013197C7
:10018000F1F70197D9F740E050E0D2CFF894FFCFD4
:10019000007FFFCCCCCCFF7F003C7EDBDBDBFFFFB6
:1001A00000C3C3C3C3E77E3C007EBDC3C3C3FFFF20
:1001B00000DBDBDBDBDBFFFF00D8D8D8D8D8FFFFC4
:1001C0001FDFD8DBDBDBFFFF00FFFF181818FFFF86
:1001D000C3C3C3FFFFC3C3C3C0C0C0FFFFC3CFCFF0
:1001E00000C3E77E3C18FFFF030303030303FFFF85
:1001F000FFFF60707060FFFFFFFF1C3870E0FFFFC3
:100200007EFFC3C3C3C3FF7E0070F8CCCCCCFFFF1E
:100210007EFFCFDFDBC3FF7E79FBDFDEDCD8FFFFB5
:10022000CEDFDBDBDBDBFB73C0C0C0FFFFC0C0C0C9
:10023000FEFF03030303FFFEE0FC1E03031EFCE0BE
:10024000FEFF03FFFF03FFFE42E77E3C3C7EE742EA
:1002500040E0703F3F70E040C3E3F3FBDFCFC7C334
:00000001FF
